{
  "_format": "hh-sol-artifact-1",
  "contractName": "PartyBidPunk2066",
  "sourceName": "contracts/PartyBidPunk2066.sol",
  "abi": [
    {
      "inputs": [
        {
          "internalType": "string",
          "name": "_tokenURI",
          "type": "string"
        },
        {
          "internalType": "address",
          "name": "_deadAddress",
          "type": "address"
        }
      ],
      "stateMutability": "nonpayable",
      "type": "constructor"
    },
    {
      "anonymous": false,
      "inputs": [
        {
          "indexed": true,
          "internalType": "address",
          "name": "owner",
          "type": "address"
        },
        {
          "indexed": true,
          "internalType": "address",
          "name": "approved",
          "type": "address"
        },
        {
          "indexed": true,
          "internalType": "uint256",
          "name": "tokenId",
          "type": "uint256"
        }
      ],
      "name": "Approval",
      "type": "event"
    },
    {
      "anonymous": false,
      "inputs": [
        {
          "indexed": true,
          "internalType": "address",
          "name": "owner",
          "type": "address"
        },
        {
          "indexed": true,
          "internalType": "address",
          "name": "operator",
          "type": "address"
        },
        {
          "indexed": false,
          "internalType": "bool",
          "name": "approved",
          "type": "bool"
        }
      ],
      "name": "ApprovalForAll",
      "type": "event"
    },
    {
      "anonymous": false,
      "inputs": [
        {
          "indexed": true,
          "internalType": "address",
          "name": "previousOwner",
          "type": "address"
        },
        {
          "indexed": true,
          "internalType": "address",
          "name": "newOwner",
          "type": "address"
        }
      ],
      "name": "OwnershipTransferred",
      "type": "event"
    },
    {
      "anonymous": false,
      "inputs": [
        {
          "indexed": true,
          "internalType": "address",
          "name": "from",
          "type": "address"
        },
        {
          "indexed": true,
          "internalType": "address",
          "name": "to",
          "type": "address"
        },
        {
          "indexed": true,
          "internalType": "uint256",
          "name": "tokenId",
          "type": "uint256"
        }
      ],
      "name": "Transfer",
      "type": "event"
    },
    {
      "inputs": [
        {
          "internalType": "address",
          "name": "to",
          "type": "address"
        },
        {
          "internalType": "uint256",
          "name": "tokenId",
          "type": "uint256"
        }
      ],
      "name": "approve",
      "outputs": [],
      "stateMutability": "nonpayable",
      "type": "function"
    },
    {
      "inputs": [
        {
          "internalType": "address",
          "name": "owner",
          "type": "address"
        }
      ],
      "name": "balanceOf",
      "outputs": [
        {
          "internalType": "uint256",
          "name": "",
          "type": "uint256"
        }
      ],
      "stateMutability": "view",
      "type": "function"
    },
    {
      "inputs": [],
      "name": "deadToken",
      "outputs": [
        {
          "internalType": "contract IERC20",
          "name": "",
          "type": "address"
        }
      ],
      "stateMutability": "view",
      "type": "function"
    },
    {
      "inputs": [
        {
          "internalType": "uint256",
          "name": "tokenId",
          "type": "uint256"
        }
      ],
      "name": "getApproved",
      "outputs": [
        {
          "internalType": "address",
          "name": "",
          "type": "address"
        }
      ],
      "stateMutability": "view",
      "type": "function"
    },
    {
      "inputs": [],
      "name": "hasBalance",
      "outputs": [
        {
          "internalType": "bool",
          "name": "",
          "type": "bool"
        }
      ],
      "stateMutability": "view",
      "type": "function"
    },
    {
      "inputs": [],
      "name": "internalTokenURI",
      "outputs": [
        {
          "internalType": "string",
          "name": "",
          "type": "string"
        }
      ],
      "stateMutability": "view",
      "type": "function"
    },
    {
      "inputs": [
        {
          "internalType": "address",
          "name": "owner",
          "type": "address"
        },
        {
          "internalType": "address",
          "name": "operator",
          "type": "address"
        }
      ],
      "name": "isApprovedForAll",
      "outputs": [
        {
          "internalType": "bool",
          "name": "",
          "type": "bool"
        }
      ],
      "stateMutability": "view",
      "type": "function"
    },
    {
      "inputs": [],
      "name": "mintCollectible",
      "outputs": [
        {
          "internalType": "uint256",
          "name": "",
          "type": "uint256"
        }
      ],
      "stateMutability": "nonpayable",
      "type": "function"
    },
    {
      "inputs": [
        {
          "internalType": "address",
          "name": "",
          "type": "address"
        }
      ],
      "name": "minted",
      "outputs": [
        {
          "internalType": "bool",
          "name": "",
          "type": "bool"
        }
      ],
      "stateMutability": "view",
      "type": "function"
    },
    {
      "inputs": [],
      "name": "name",
      "outputs": [
        {
          "internalType": "string",
          "name": "",
          "type": "string"
        }
      ],
      "stateMutability": "view",
      "type": "function"
    },
    {
      "inputs": [],
      "name": "owner",
      "outputs": [
        {
          "internalType": "address",
          "name": "",
          "type": "address"
        }
      ],
      "stateMutability": "view",
      "type": "function"
    },
    {
      "inputs": [
        {
          "internalType": "uint256",
          "name": "tokenId",
          "type": "uint256"
        }
      ],
      "name": "ownerOf",
      "outputs": [
        {
          "internalType": "address",
          "name": "",
          "type": "address"
        }
      ],
      "stateMutability": "view",
      "type": "function"
    },
    {
      "inputs": [],
      "name": "renounceOwnership",
      "outputs": [],
      "stateMutability": "nonpayable",
      "type": "function"
    },
    {
      "inputs": [
        {
          "internalType": "address",
          "name": "from",
          "type": "address"
        },
        {
          "internalType": "address",
          "name": "to",
          "type": "address"
        },
        {
          "internalType": "uint256",
          "name": "tokenId",
          "type": "uint256"
        }
      ],
      "name": "safeTransferFrom",
      "outputs": [],
      "stateMutability": "nonpayable",
      "type": "function"
    },
    {
      "inputs": [
        {
          "internalType": "address",
          "name": "from",
          "type": "address"
        },
        {
          "internalType": "address",
          "name": "to",
          "type": "address"
        },
        {
          "internalType": "uint256",
          "name": "tokenId",
          "type": "uint256"
        },
        {
          "internalType": "bytes",
          "name": "_data",
          "type": "bytes"
        }
      ],
      "name": "safeTransferFrom",
      "outputs": [],
      "stateMutability": "nonpayable",
      "type": "function"
    },
    {
      "inputs": [
        {
          "internalType": "address",
          "name": "operator",
          "type": "address"
        },
        {
          "internalType": "bool",
          "name": "approved",
          "type": "bool"
        }
      ],
      "name": "setApprovalForAll",
      "outputs": [],
      "stateMutability": "nonpayable",
      "type": "function"
    },
    {
      "inputs": [
        {
          "internalType": "bytes4",
          "name": "interfaceId",
          "type": "bytes4"
        }
      ],
      "name": "supportsInterface",
      "outputs": [
        {
          "internalType": "bool",
          "name": "",
          "type": "bool"
        }
      ],
      "stateMutability": "view",
      "type": "function"
    },
    {
      "inputs": [],
      "name": "symbol",
      "outputs": [
        {
          "internalType": "string",
          "name": "",
          "type": "string"
        }
      ],
      "stateMutability": "view",
      "type": "function"
    },
    {
      "inputs": [],
      "name": "tokenCounter",
      "outputs": [
        {
          "internalType": "uint256",
          "name": "",
          "type": "uint256"
        }
      ],
      "stateMutability": "view",
      "type": "function"
    },
    {
      "inputs": [
        {
          "internalType": "uint256",
          "name": "tokenId",
          "type": "uint256"
        }
      ],
      "name": "tokenURI",
      "outputs": [
        {
          "internalType": "string",
          "name": "",
          "type": "string"
        }
      ],
      "stateMutability": "view",
      "type": "function"
    },
    {
      "inputs": [
        {
          "internalType": "address",
          "name": "from",
          "type": "address"
        },
        {
          "internalType": "address",
          "name": "to",
          "type": "address"
        },
        {
          "internalType": "uint256",
          "name": "tokenId",
          "type": "uint256"
        }
      ],
      "name": "transferFrom",
      "outputs": [],
      "stateMutability": "nonpayable",
      "type": "function"
    },
    {
      "inputs": [
        {
          "internalType": "address",
          "name": "newOwner",
          "type": "address"
        }
      ],
      "name": "transferOwnership",
      "outputs": [],
      "stateMutability": "nonpayable",
      "type": "function"
    }
  ],
  "bytecode": "0x60806040523480156200001157600080fd5b5060405162003aaf38038062003aaf833981810160405281019062000037919062000374565b6040518060400160405280600c81526020017f44656164546f6b656e4e465400000000000000000000000000000000000000008152506040518060400160405280600381526020017f44544e00000000000000000000000000000000000000000000000000000000008152508160009080519060200190620000bb9291906200022f565b508060019080519060200190620000d49291906200022f565b505050620000f7620000eb6200016160201b60201c565b6200016960201b60201c565b60006008819055508160099080519060200190620001179291906200022f565b5080600a60006101000a81548173ffffffffffffffffffffffffffffffffffffffff021916908373ffffffffffffffffffffffffffffffffffffffff1602179055505050620005ac565b600033905090565b6000600760009054906101000a900473ffffffffffffffffffffffffffffffffffffffff16905081600760006101000a81548173ffffffffffffffffffffffffffffffffffffffff021916908373ffffffffffffffffffffffffffffffffffffffff1602179055508173ffffffffffffffffffffffffffffffffffffffff168173ffffffffffffffffffffffffffffffffffffffff167f8be0079c531659141344cd1fd0a4f28419497f9722a3daafe3b4186f6b6457e060405160405180910390a35050565b8280546200023d90620004a3565b90600052602060002090601f016020900481019282620002615760008555620002ad565b82601f106200027c57805160ff1916838001178555620002ad565b82800160010185558215620002ad579182015b82811115620002ac5782518255916020019190600101906200028f565b5b509050620002bc9190620002c0565b5090565b5b80821115620002db576000816000905550600101620002c1565b5090565b6000620002f6620002f08462000403565b620003da565b90508281526020810184848401111562000315576200031462000572565b5b620003228482856200046d565b509392505050565b6000815190506200033b8162000592565b92915050565b600082601f8301126200035957620003586200056d565b5b81516200036b848260208601620002df565b91505092915050565b600080604083850312156200038e576200038d6200057c565b5b600083015167ffffffffffffffff811115620003af57620003ae62000577565b5b620003bd8582860162000341565b9250506020620003d0858286016200032a565b9150509250929050565b6000620003e6620003f9565b9050620003f48282620004d9565b919050565b6000604051905090565b600067ffffffffffffffff8211156200042157620004206200053e565b5b6200042c8262000581565b9050602081019050919050565b600062000446826200044d565b9050919050565b600073ffffffffffffffffffffffffffffffffffffffff82169050919050565b60005b838110156200048d57808201518184015260208101905062000470565b838111156200049d576000848401525b50505050565b60006002820490506001821680620004bc57607f821691505b60208210811415620004d357620004d26200050f565b5b50919050565b620004e48262000581565b810181811067ffffffffffffffff821117156200050657620005056200053e565b5b80604052505050565b7f4e487b7100000000000000000000000000000000000000000000000000000000600052602260045260246000fd5b7f4e487b7100000000000000000000000000000000000000000000000000000000600052604160045260246000fd5b600080fd5b600080fd5b600080fd5b600080fd5b6000601f19601f8301169050919050565b6200059d8162000439565b8114620005a957600080fd5b50565b6134f380620005bc6000396000f3fe608060405234801561001057600080fd5b50600436106101425760003560e01c80638da5cb5b116100b8578063c87b56dd1161007c578063c87b56dd14610363578063d082e38114610393578063de76299d146103b1578063e985e9c5146103cf578063f2fde38b146103ff578063f919594b1461041b57610142565b80638da5cb5b146102d157806395d89b41146102ef578063a22cb4651461030d578063b1710ef914610329578063b88d4fde1461034757610142565b806323b872dd1161010a57806323b872dd1461021157806342842e0e1461022d5780634750668b146102495780636352211e1461026757806370a0823114610297578063715018a6146102c757610142565b806301ffc9a71461014757806306fdde0314610177578063081812fc14610195578063095ea7b3146101c55780631e7269c5146101e1575b600080fd5b610161600480360381019061015c9190612331565b610439565b60405161016e919061280b565b60405180910390f35b61017f61051b565b60405161018c9190612841565b60405180910390f35b6101af60048036038101906101aa919061238b565b6105ad565b6040516101bc91906127a4565b60405180910390f35b6101df60048036038101906101da91906122f1565b610632565b005b6101fb60048036038101906101f6919061216e565b61074a565b604051610208919061280b565b60405180910390f35b61022b600480360381019061022691906121db565b61076a565b005b610247600480360381019061024291906121db565b6107ca565b005b6102516107ea565b60405161025e9190612826565b60405180910390f35b610281600480360381019061027c919061238b565b610810565b60405161028e91906127a4565b60405180910390f35b6102b160048036038101906102ac919061216e565b6108c2565b6040516102be9190612ae3565b60405180910390f35b6102cf61097a565b005b6102d9610a02565b6040516102e691906127a4565b60405180910390f35b6102f7610a2c565b6040516103049190612841565b60405180910390f35b610327600480360381019061032291906122b1565b610abe565b005b610331610c3f565b60405161033e919061280b565b60405180910390f35b610361600480360381019061035c919061222e565b610cf3565b005b61037d6004803603810190610378919061238b565b610d55565b60405161038a9190612841565b60405180910390f35b61039b610ea7565b6040516103a89190612ae3565b60405180910390f35b6103b9610ead565b6040516103c69190612841565b60405180910390f35b6103e960048036038101906103e4919061219b565b610f3b565b6040516103f6919061280b565b60405180910390f35b6104196004803603810190610414919061216e565b610fcf565b005b6104236110c7565b6040516104309190612ae3565b60405180910390f35b60007f80ac58cd000000000000000000000000000000000000000000000000000000007bffffffffffffffffffffffffffffffffffffffffffffffffffffffff1916827bffffffffffffffffffffffffffffffffffffffffffffffffffffffff1916148061050457507f5b5e139f000000000000000000000000000000000000000000000000000000007bffffffffffffffffffffffffffffffffffffffffffffffffffffffff1916827bffffffffffffffffffffffffffffffffffffffffffffffffffffffff1916145b80610514575061051382611361565b5b9050919050565b60606000805461052a90612d2c565b80601f016020809104026020016040519081016040528092919081815260200182805461055690612d2c565b80156105a35780601f10610578576101008083540402835291602001916105a3565b820191906000526020600020905b81548152906001019060200180831161058657829003601f168201915b5050505050905090565b60006105b8826113cb565b6105f7576040517f08c379a00000000000000000000000000000000000000000000000000000000081526004016105ee90612a23565b60405180910390fd5b6004600083815260200190815260200160002060009054906101000a900473ffffffffffffffffffffffffffffffffffffffff169050919050565b600061063d82610810565b90508073ffffffffffffffffffffffffffffffffffffffff168373ffffffffffffffffffffffffffffffffffffffff1614156106ae576040517f08c379a00000000000000000000000000000000000000000000000000000000081526004016106a590612aa3565b60405180910390fd5b8073ffffffffffffffffffffffffffffffffffffffff166106cd611437565b73ffffffffffffffffffffffffffffffffffffffff1614806106fc57506106fb816106f6611437565b610f3b565b5b61073b576040517f08c379a000000000000000000000000000000000000000000000000000000000815260040161073290612963565b60405180910390fd5b610745838361143f565b505050565b600b6020528060005260406000206000915054906101000a900460ff1681565b61077b610775611437565b826114f8565b6107ba576040517f08c379a00000000000000000000000000000000000000000000000000000000081526004016107b190612ac3565b60405180910390fd5b6107c58383836115d6565b505050565b6107e583838360405180602001604052806000815250610cf3565b505050565b600a60009054906101000a900473ffffffffffffffffffffffffffffffffffffffff1681565b6000806002600084815260200190815260200160002060009054906101000a900473ffffffffffffffffffffffffffffffffffffffff169050600073ffffffffffffffffffffffffffffffffffffffff168173ffffffffffffffffffffffffffffffffffffffff1614156108b9576040517f08c379a00000000000000000000000000000000000000000000000000000000081526004016108b0906129a3565b60405180910390fd5b80915050919050565b60008073ffffffffffffffffffffffffffffffffffffffff168273ffffffffffffffffffffffffffffffffffffffff161415610933576040517f08c379a000000000000000000000000000000000000000000000000000000000815260040161092a90612983565b60405180910390fd5b600360008373ffffffffffffffffffffffffffffffffffffffff1673ffffffffffffffffffffffffffffffffffffffff168152602001908152602001600020549050919050565b610982611437565b73ffffffffffffffffffffffffffffffffffffffff166109a0610a02565b73ffffffffffffffffffffffffffffffffffffffff16146109f6576040517f08c379a00000000000000000000000000000000000000000000000000000000081526004016109ed90612a43565b60405180910390fd5b610a006000611832565b565b6000600760009054906101000a900473ffffffffffffffffffffffffffffffffffffffff16905090565b606060018054610a3b90612d2c565b80601f0160208091040260200160405190810160405280929190818152602001828054610a6790612d2c565b8015610ab45780601f10610a8957610100808354040283529160200191610ab4565b820191906000526020600020905b815481529060010190602001808311610a9757829003601f168201915b5050505050905090565b610ac6611437565b73ffffffffffffffffffffffffffffffffffffffff168273ffffffffffffffffffffffffffffffffffffffff161415610b34576040517f08c379a0000000000000000000000000000000000000000000000000000000008152600401610b2b90612903565b60405180910390fd5b8060056000610b41611437565b73ffffffffffffffffffffffffffffffffffffffff1673ffffffffffffffffffffffffffffffffffffffff16815260200190815260200160002060008473ffffffffffffffffffffffffffffffffffffffff1673ffffffffffffffffffffffffffffffffffffffff16815260200190815260200160002060006101000a81548160ff0219169083151502179055508173ffffffffffffffffffffffffffffffffffffffff16610bee611437565b73ffffffffffffffffffffffffffffffffffffffff167f17307eab39ab6107e8899845ad3d59bd9653f200f220920489ca2b5937696c3183604051610c33919061280b565b60405180910390a35050565b600080600a60009054906101000a900473ffffffffffffffffffffffffffffffffffffffff1673ffffffffffffffffffffffffffffffffffffffff166370a08231336040518263ffffffff1660e01b8152600401610c9d91906127a4565b60206040518083038186803b158015610cb557600080fd5b505afa158015610cc9573d6000803e3d6000fd5b505050506040513d601f19601f82011682018060405250810190610ced91906123b8565b11905090565b610d04610cfe611437565b836114f8565b610d43576040517f08c379a0000000000000000000000000000000000000000000000000000000008152600401610d3a90612ac3565b60405180910390fd5b610d4f848484846118f8565b50505050565b6060610d60826113cb565b610d9f576040517f08c379a0000000000000000000000000000000000000000000000000000000008152600401610d9690612a03565b60405180910390fd5b6000600660008481526020019081526020016000208054610dbf90612d2c565b80601f0160208091040260200160405190810160405280929190818152602001828054610deb90612d2c565b8015610e385780601f10610e0d57610100808354040283529160200191610e38565b820191906000526020600020905b815481529060010190602001808311610e1b57829003601f168201915b505050505090506000610e49611954565b9050600081511415610e5f578192505050610ea2565b600082511115610e94578082604051602001610e7c929190612780565b60405160208183030381529060405292505050610ea2565b610e9d8461196b565b925050505b919050565b60085481565b60098054610eba90612d2c565b80601f0160208091040260200160405190810160405280929190818152602001828054610ee690612d2c565b8015610f335780601f10610f0857610100808354040283529160200191610f33565b820191906000526020600020905b815481529060010190602001808311610f1657829003601f168201915b505050505081565b6000600560008473ffffffffffffffffffffffffffffffffffffffff1673ffffffffffffffffffffffffffffffffffffffff16815260200190815260200160002060008373ffffffffffffffffffffffffffffffffffffffff1673ffffffffffffffffffffffffffffffffffffffff16815260200190815260200160002060009054906101000a900460ff16905092915050565b610fd7611437565b73ffffffffffffffffffffffffffffffffffffffff16610ff5610a02565b73ffffffffffffffffffffffffffffffffffffffff161461104b576040517f08c379a000000000000000000000000000000000000000000000000000000000815260040161104290612a43565b60405180910390fd5b600073ffffffffffffffffffffffffffffffffffffffff168173ffffffffffffffffffffffffffffffffffffffff1614156110bb576040517f08c379a00000000000000000000000000000000000000000000000000000000081526004016110b290612883565b60405180910390fd5b6110c481611832565b50565b600080600a60009054906101000a900473ffffffffffffffffffffffffffffffffffffffff1673ffffffffffffffffffffffffffffffffffffffff166370a08231336040518263ffffffff1660e01b815260040161112591906127a4565b60206040518083038186803b15801561113d57600080fd5b505afa158015611151573d6000803e3d6000fd5b505050506040513d601f19601f8201168201806040525081019061117591906123b8565b116111b5576040517f08c379a00000000000000000000000000000000000000000000000000000000081526004016111ac90612923565b60405180910390fd5b60001515600b60003373ffffffffffffffffffffffffffffffffffffffff1673ffffffffffffffffffffffffffffffffffffffff16815260200190815260200160002060009054906101000a900460ff16151514611248576040517f08c379a000000000000000000000000000000000000000000000000000000000815260040161123f906128e3565b60405180910390fd5b6001600b60003373ffffffffffffffffffffffffffffffffffffffff1673ffffffffffffffffffffffffffffffffffffffff16815260200190815260200160002060006101000a81548160ff021916908315150217905550600060085490506112b13382611a12565b61134581600980546112c290612d2c565b80601f01602080910402602001604051908101604052809291908181526020018280546112ee90612d2c565b801561133b5780601f106113105761010080835404028352916020019161133b565b820191906000526020600020905b81548152906001019060200180831161131e57829003601f168201915b5050505050611a30565b60016008546113549190612b97565b6008819055508091505090565b60007f01ffc9a7000000000000000000000000000000000000000000000000000000007bffffffffffffffffffffffffffffffffffffffffffffffffffffffff1916827bffffffffffffffffffffffffffffffffffffffffffffffffffffffff1916149050919050565b60008073ffffffffffffffffffffffffffffffffffffffff166002600084815260200190815260200160002060009054906101000a900473ffffffffffffffffffffffffffffffffffffffff1673ffffffffffffffffffffffffffffffffffffffff1614159050919050565b600033905090565b816004600083815260200190815260200160002060006101000a81548173ffffffffffffffffffffffffffffffffffffffff021916908373ffffffffffffffffffffffffffffffffffffffff160217905550808273ffffffffffffffffffffffffffffffffffffffff166114b283610810565b73ffffffffffffffffffffffffffffffffffffffff167f8c5be1e5ebec7d5bd14f71427d1e84f3dd0314c0f7b2291e5b200ac8c7c3b92560405160405180910390a45050565b6000611503826113cb565b611542576040517f08c379a000000000000000000000000000000000000000000000000000000000815260040161153990612943565b60405180910390fd5b600061154d83610810565b90508073ffffffffffffffffffffffffffffffffffffffff168473ffffffffffffffffffffffffffffffffffffffff1614806115bc57508373ffffffffffffffffffffffffffffffffffffffff166115a4846105ad565b73ffffffffffffffffffffffffffffffffffffffff16145b806115cd57506115cc8185610f3b565b5b91505092915050565b8273ffffffffffffffffffffffffffffffffffffffff166115f682610810565b73ffffffffffffffffffffffffffffffffffffffff161461164c576040517f08c379a000000000000000000000000000000000000000000000000000000000815260040161164390612a63565b60405180910390fd5b600073ffffffffffffffffffffffffffffffffffffffff168273ffffffffffffffffffffffffffffffffffffffff1614156116bc576040517f08c379a00000000000000000000000000000000000000000000000000000000081526004016116b3906128c3565b60405180910390fd5b6116c7838383611aa4565b6116d260008261143f565b6001600360008573ffffffffffffffffffffffffffffffffffffffff1673ffffffffffffffffffffffffffffffffffffffff16815260200190815260200160002060008282546117229190612c1e565b925050819055506001600360008473ffffffffffffffffffffffffffffffffffffffff1673ffffffffffffffffffffffffffffffffffffffff16815260200190815260200160002060008282546117799190612b97565b92505081905550816002600083815260200190815260200160002060006101000a81548173ffffffffffffffffffffffffffffffffffffffff021916908373ffffffffffffffffffffffffffffffffffffffff160217905550808273ffffffffffffffffffffffffffffffffffffffff168473ffffffffffffffffffffffffffffffffffffffff167fddf252ad1be2c89b69c2b068fc378daa952ba7f163c4a11628f55a4df523b3ef60405160405180910390a4505050565b6000600760009054906101000a900473ffffffffffffffffffffffffffffffffffffffff16905081600760006101000a81548173ffffffffffffffffffffffffffffffffffffffff021916908373ffffffffffffffffffffffffffffffffffffffff1602179055508173ffffffffffffffffffffffffffffffffffffffff168173ffffffffffffffffffffffffffffffffffffffff167f8be0079c531659141344cd1fd0a4f28419497f9722a3daafe3b4186f6b6457e060405160405180910390a35050565b6119038484846115d6565b61190f84848484611aa9565b61194e576040517f08c379a000000000000000000000000000000000000000000000000000000000815260040161194590612863565b60405180910390fd5b50505050565b606060405180602001604052806000815250905090565b6060611976826113cb565b6119b5576040517f08c379a00000000000000000000000000000000000000000000000000000000081526004016119ac90612a83565b60405180910390fd5b60006119bf611954565b905060008151116119df5760405180602001604052806000815250611a0a565b806119e984611c40565b6040516020016119fa929190612780565b6040516020818303038152906040525b915050919050565b611a2c828260405180602001604052806000815250611da1565b5050565b611a39826113cb565b611a78576040517f08c379a0000000000000000000000000000000000000000000000000000000008152600401611a6f906129c3565b60405180910390fd5b80600660008481526020019081526020016000209080519060200190611a9f929190611fdd565b505050565b505050565b6000611aca8473ffffffffffffffffffffffffffffffffffffffff16611dfc565b15611c33578373ffffffffffffffffffffffffffffffffffffffff1663150b7a02611af3611437565b8786866040518563ffffffff1660e01b8152600401611b1594939291906127bf565b602060405180830381600087803b158015611b2f57600080fd5b505af1925050508015611b6057506040513d601f19601f82011682018060405250810190611b5d919061235e565b60015b611be3573d8060008114611b90576040519150601f19603f3d011682016040523d82523d6000602084013e611b95565b606091505b50600081511415611bdb576040517f08c379a0000000000000000000000000000000000000000000000000000000008152600401611bd290612863565b60405180910390fd5b805181602001fd5b63150b7a0260e01b7bffffffffffffffffffffffffffffffffffffffffffffffffffffffff1916817bffffffffffffffffffffffffffffffffffffffffffffffffffffffff191614915050611c38565b600190505b949350505050565b60606000821415611c88576040518060400160405280600181526020017f30000000000000000000000000000000000000000000000000000000000000008152509050611d9c565b600082905060005b60008214611cba578080611ca390612d8f565b915050600a82611cb39190612bed565b9150611c90565b60008167ffffffffffffffff811115611cd657611cd5612ec5565b5b6040519080825280601f01601f191660200182016040528015611d085781602001600182028036833780820191505090505b5090505b60008514611d9557600182611d219190612c1e565b9150600a85611d309190612dd8565b6030611d3c9190612b97565b60f81b818381518110611d5257611d51612e96565b5b60200101907effffffffffffffffffffffffffffffffffffffffffffffffffffffffffffff1916908160001a905350600a85611d8e9190612bed565b9450611d0c565b8093505050505b919050565b611dab8383611e0f565b611db86000848484611aa9565b611df7576040517f08c379a0000000000000000000000000000000000000000000000000000000008152600401611dee90612863565b60405180910390fd5b505050565b600080823b905060008111915050919050565b600073ffffffffffffffffffffffffffffffffffffffff168273ffffffffffffffffffffffffffffffffffffffff161415611e7f576040517f08c379a0000000000000000000000000000000000000000000000000000000008152600401611e76906129e3565b60405180910390fd5b611e88816113cb565b15611ec8576040517f08c379a0000000000000000000000000000000000000000000000000000000008152600401611ebf906128a3565b60405180910390fd5b611ed460008383611aa4565b6001600360008473ffffffffffffffffffffffffffffffffffffffff1673ffffffffffffffffffffffffffffffffffffffff1681526020019081526020016000206000828254611f249190612b97565b92505081905550816002600083815260200190815260200160002060006101000a81548173ffffffffffffffffffffffffffffffffffffffff021916908373ffffffffffffffffffffffffffffffffffffffff160217905550808273ffffffffffffffffffffffffffffffffffffffff16600073ffffffffffffffffffffffffffffffffffffffff167fddf252ad1be2c89b69c2b068fc378daa952ba7f163c4a11628f55a4df523b3ef60405160405180910390a45050565b828054611fe990612d2c565b90600052602060002090601f01602090048101928261200b5760008555612052565b82601f1061202457805160ff1916838001178555612052565b82800160010185558215612052579182015b82811115612051578251825591602001919060010190612036565b5b50905061205f9190612063565b5090565b5b8082111561207c576000816000905550600101612064565b5090565b600061209361208e84612b23565b612afe565b9050828152602081018484840111156120af576120ae612ef9565b5b6120ba848285612cea565b509392505050565b6000813590506120d181613461565b92915050565b6000813590506120e681613478565b92915050565b6000813590506120fb8161348f565b92915050565b6000815190506121108161348f565b92915050565b600082601f83011261212b5761212a612ef4565b5b813561213b848260208601612080565b91505092915050565b600081359050612153816134a6565b92915050565b600081519050612168816134a6565b92915050565b60006020828403121561218457612183612f03565b5b6000612192848285016120c2565b91505092915050565b600080604083850312156121b2576121b1612f03565b5b60006121c0858286016120c2565b92505060206121d1858286016120c2565b9150509250929050565b6000806000606084860312156121f4576121f3612f03565b5b6000612202868287016120c2565b9350506020612213868287016120c2565b925050604061222486828701612144565b9150509250925092565b6000806000806080858703121561224857612247612f03565b5b6000612256878288016120c2565b9450506020612267878288016120c2565b935050604061227887828801612144565b925050606085013567ffffffffffffffff81111561229957612298612efe565b5b6122a587828801612116565b91505092959194509250565b600080604083850312156122c8576122c7612f03565b5b60006122d6858286016120c2565b92505060206122e7858286016120d7565b9150509250929050565b6000806040838503121561230857612307612f03565b5b6000612316858286016120c2565b925050602061232785828601612144565b9150509250929050565b60006020828403121561234757612346612f03565b5b6000612355848285016120ec565b91505092915050565b60006020828403121561237457612373612f03565b5b600061238284828501612101565b91505092915050565b6000602082840312156123a1576123a0612f03565b5b60006123af84828501612144565b91505092915050565b6000602082840312156123ce576123cd612f03565b5b60006123dc84828501612159565b91505092915050565b6123ee81612c52565b82525050565b6123fd81612c64565b82525050565b600061240e82612b54565b6124188185612b6a565b9350612428818560208601612cf9565b61243181612f08565b840191505092915050565b61244581612cc6565b82525050565b600061245682612b5f565b6124608185612b7b565b9350612470818560208601612cf9565b61247981612f08565b840191505092915050565b600061248f82612b5f565b6124998185612b8c565b93506124a9818560208601612cf9565b80840191505092915050565b60006124c2603283612b7b565b91506124cd82612f19565b604082019050919050565b60006124e5602683612b7b565b91506124f082612f68565b604082019050919050565b6000612508601c83612b7b565b915061251382612fb7565b602082019050919050565b600061252b602483612b7b565b915061253682612fe0565b604082019050919050565b600061254e601283612b7b565b91506125598261302f565b602082019050919050565b6000612571601983612b7b565b915061257c82613058565b602082019050919050565b6000612594601783612b7b565b915061259f82613081565b602082019050919050565b60006125b7602c83612b7b565b91506125c2826130aa565b604082019050919050565b60006125da603883612b7b565b91506125e5826130f9565b604082019050919050565b60006125fd602a83612b7b565b915061260882613148565b604082019050919050565b6000612620602983612b7b565b915061262b82613197565b604082019050919050565b6000612643602e83612b7b565b915061264e826131e6565b604082019050919050565b6000612666602083612b7b565b915061267182613235565b602082019050919050565b6000612689603183612b7b565b91506126948261325e565b604082019050919050565b60006126ac602c83612b7b565b91506126b7826132ad565b604082019050919050565b60006126cf602083612b7b565b91506126da826132fc565b602082019050919050565b60006126f2602983612b7b565b91506126fd82613325565b604082019050919050565b6000612715602f83612b7b565b915061272082613374565b604082019050919050565b6000612738602183612b7b565b9150612743826133c3565b604082019050919050565b600061275b603183612b7b565b915061276682613412565b604082019050919050565b61277a81612cbc565b82525050565b600061278c8285612484565b91506127988284612484565b91508190509392505050565b60006020820190506127b960008301846123e5565b92915050565b60006080820190506127d460008301876123e5565b6127e160208301866123e5565b6127ee6040830185612771565b81810360608301526128008184612403565b905095945050505050565b600060208201905061282060008301846123f4565b92915050565b600060208201905061283b600083018461243c565b92915050565b6000602082019050818103600083015261285b818461244b565b905092915050565b6000602082019050818103600083015261287c816124b5565b9050919050565b6000602082019050818103600083015261289c816124d8565b9050919050565b600060208201905081810360008301526128bc816124fb565b9050919050565b600060208201905081810360008301526128dc8161251e565b9050919050565b600060208201905081810360008301526128fc81612541565b9050919050565b6000602082019050818103600083015261291c81612564565b9050919050565b6000602082019050818103600083015261293c81612587565b9050919050565b6000602082019050818103600083015261295c816125aa565b9050919050565b6000602082019050818103600083015261297c816125cd565b9050919050565b6000602082019050818103600083015261299c816125f0565b9050919050565b600060208201905081810360008301526129bc81612613565b9050919050565b600060208201905081810360008301526129dc81612636565b9050919050565b600060208201905081810360008301526129fc81612659565b9050919050565b60006020820190508181036000830152612a1c8161267c565b9050919050565b60006020820190508181036000830152612a3c8161269f565b9050919050565b60006020820190508181036000830152612a5c816126c2565b9050919050565b60006020820190508181036000830152612a7c816126e5565b9050919050565b60006020820190508181036000830152612a9c81612708565b9050919050565b60006020820190508181036000830152612abc8161272b565b9050919050565b60006020820190508181036000830152612adc8161274e565b9050919050565b6000602082019050612af86000830184612771565b92915050565b6000612b08612b19565b9050612b148282612d5e565b919050565b6000604051905090565b600067ffffffffffffffff821115612b3e57612b3d612ec5565b5b612b4782612f08565b9050602081019050919050565b600081519050919050565b600081519050919050565b600082825260208201905092915050565b600082825260208201905092915050565b600081905092915050565b6000612ba282612cbc565b9150612bad83612cbc565b9250827fffffffffffffffffffffffffffffffffffffffffffffffffffffffffffffffff03821115612be257612be1612e09565b5b828201905092915050565b6000612bf882612cbc565b9150612c0383612cbc565b925082612c1357612c12612e38565b5b828204905092915050565b6000612c2982612cbc565b9150612c3483612cbc565b925082821015612c4757612c46612e09565b5b828203905092915050565b6000612c5d82612c9c565b9050919050565b60008115159050919050565b60007fffffffff0000000000000000000000000000000000000000000000000000000082169050919050565b600073ffffffffffffffffffffffffffffffffffffffff82169050919050565b6000819050919050565b6000612cd182612cd8565b9050919050565b6000612ce382612c9c565b9050919050565b82818337600083830152505050565b60005b83811015612d17578082015181840152602081019050612cfc565b83811115612d26576000848401525b50505050565b60006002820490506001821680612d4457607f821691505b60208210811415612d5857612d57612e67565b5b50919050565b612d6782612f08565b810181811067ffffffffffffffff82111715612d8657612d85612ec5565b5b80604052505050565b6000612d9a82612cbc565b91507fffffffffffffffffffffffffffffffffffffffffffffffffffffffffffffffff821415612dcd57612dcc612e09565b5b600182019050919050565b6000612de382612cbc565b9150612dee83612cbc565b925082612dfe57612dfd612e38565b5b828206905092915050565b7f4e487b7100000000000000000000000000000000000000000000000000000000600052601160045260246000fd5b7f4e487b7100000000000000000000000000000000000000000000000000000000600052601260045260246000fd5b7f4e487b7100000000000000000000000000000000000000000000000000000000600052602260045260246000fd5b7f4e487b7100000000000000000000000000000000000000000000000000000000600052603260045260246000fd5b7f4e487b7100000000000000000000000000000000000000000000000000000000600052604160045260246000fd5b600080fd5b600080fd5b600080fd5b600080fd5b6000601f19601f8301169050919050565b7f4552433732313a207472616e7366657220746f206e6f6e20455243373231526560008201527f63656976657220696d706c656d656e7465720000000000000000000000000000602082015250565b7f4f776e61626c653a206e6577206f776e657220697320746865207a65726f206160008201527f6464726573730000000000000000000000000000000000000000000000000000602082015250565b7f4552433732313a20746f6b656e20616c7265616479206d696e74656400000000600082015250565b7f4552433732313a207472616e7366657220746f20746865207a65726f2061646460008201527f7265737300000000000000000000000000000000000000000000000000000000602082015250565b7f4e465420616c7265616479206d696e7465640000000000000000000000000000600082015250565b7f4552433732313a20617070726f766520746f2063616c6c657200000000000000600082015250565b7f4f776e657220646f65736e277420686176652044454144000000000000000000600082015250565b7f4552433732313a206f70657261746f7220717565727920666f72206e6f6e657860008201527f697374656e7420746f6b656e0000000000000000000000000000000000000000602082015250565b7f4552433732313a20617070726f76652063616c6c6572206973206e6f74206f7760008201527f6e6572206e6f7220617070726f76656420666f7220616c6c0000000000000000602082015250565b7f4552433732313a2062616c616e636520717565727920666f7220746865207a6560008201527f726f206164647265737300000000000000000000000000000000000000000000602082015250565b7f4552433732313a206f776e657220717565727920666f72206e6f6e657869737460008201527f656e7420746f6b656e0000000000000000000000000000000000000000000000602082015250565b7f45524337323155524953746f726167653a2055524920736574206f66206e6f6e60008201527f6578697374656e7420746f6b656e000000000000000000000000000000000000602082015250565b7f4552433732313a206d696e7420746f20746865207a65726f2061646472657373600082015250565b7f45524337323155524953746f726167653a2055524920717565727920666f722060008201527f6e6f6e6578697374656e7420746f6b656e000000000000000000000000000000602082015250565b7f4552433732313a20617070726f76656420717565727920666f72206e6f6e657860008201527f697374656e7420746f6b656e0000000000000000000000000000000000000000602082015250565b7f4f776e61626c653a2063616c6c6572206973206e6f7420746865206f776e6572600082015250565b7f4552433732313a207472616e73666572206f6620746f6b656e2074686174206960008201527f73206e6f74206f776e0000000000000000000000000000000000000000000000602082015250565b7f4552433732314d657461646174613a2055524920717565727920666f72206e6f60008201527f6e6578697374656e7420746f6b656e0000000000000000000000000000000000602082015250565b7f4552433732313a20617070726f76616c20746f2063757272656e74206f776e6560008201527f7200000000000000000000000000000000000000000000000000000000000000602082015250565b7f4552433732313a207472616e736665722063616c6c6572206973206e6f74206f60008201527f776e6572206e6f7220617070726f766564000000000000000000000000000000602082015250565b61346a81612c52565b811461347557600080fd5b50565b61348181612c64565b811461348c57600080fd5b50565b61349881612c70565b81146134a357600080fd5b50565b6134af81612cbc565b81146134ba57600080fd5b5056fea264697066735822122089a16b4aa176e07f373d5b9988d7fb0ab2c7dc314de20f71a25bd4b885dabe5064736f6c63430008050033",
  "linkReferences": {},
  "deployedLinkReferences": {}
}